:100000000C9434000C9446000C9446000C9446006A
:100010000C9446000C9446000C9446000C94460048
:100020000C9446000C9446000C9446000C94460038
:100030000C9446000C9446000C9446000C94460028
:100040000C9448000C9446000C9446000C94460016
:100050000C9446000C9446000C9446000C94460008
:100060000C9446000C94460011241FBECFEFD4E040
:10007000DEBFCDBF21E0A0E0B1E001C01D92A13004
:10008000B207E1F70E9463000C946D000C9400002D
:100090001F920F920FB60F9211248F939F9380910E
:1000A00000018F5F809300018B3730F088B191E0C1
:1000B000892788B9109200019F918F910F900FBEF0
:1000C0000F901F901895389A409814BC85E085BD14
:0E00D00081E080936E007894FFCFF894FFCF0C
:00000001FF
