:100000000C9434000C9465000C9448000C94460049
:100010000C9446000C9446000C9446000C94460048
:100020000C9446000C9446000C9446000C94460038
:100030000C9446000C9446000C9446000C94460028
:100040000C9446000C9446000C9446000C94460018
:100050000C9446000C9446000C9446000C94460008
:100060000C9446000C94460011241FBECFEFD8E03C
:10007000DEBFCDBF21E0A0E0B1E001C01D92A53000
:10008000B207E1F70E947D000C94D9000C940000A7
:100090001F920F920FB60F9211242F938F939F935D
:1000A0009DB381E089278DBB2FEF86E791E021503A
:1000B00080409040E1F700C000009F918F912F9108
:1000C0000F900FBE0F901F9018951F920F920FB6B2
:1000D0000F9211248F9381E080930401109200010C
:1000E0001092010110920201109203015C9A8F910B
:1000F0000F900FBE0F901F9018958AB180638AB938
:100100008BB1837F8BB98AE08093690083E08DBBDC
:10011000789420E030E0E4EFF1E040E2C901BF0173
:100120000E94C500892B19F48BB184278BB980916B
:1001300004018823D9F08091000190910101A091E0
:100140000201B09103010196A11DB11D8093000130
:1001500090930101A0930201B0930301883E934064
:10016000A105B10518F05C98109204018FE99FE099
:100170000197F1F700C000002F5F3F4F20369AEE45
:10018000390760F220E030E0C9CFAA1BBB1B51E168
:1001900007C0AA1FBB1FA617B70710F0A61BB70BF7
:1001A000881F991F5A95A9F780959095BC01CD019C
:0601B0000895F894FFCF52
:00000001FF
