:100000000C9434000C9446000C9446000C947A0036
:100010000C9446000C9448000C9446000C94460046
:100020000C9446000C9446000C9446000C94460038
:100030000C9446000C9446000C9446000C94460028
:100040000C9446000C9446000C9446000C94460018
:100050000C9446000C9446000C9446000C94460008
:100060000C9446000C94460011241FBECFEFD8E03C
:10007000DEBFCDBF21E0A0E0B1E001C01D92A13004
:10008000B207E1F70E94AC000C94D2000C9400007F
:100090001F920F920FB60F9211242F938F939F935D
:1000A000459810920001809100018A30D8F42D9A71
:1000B0002FEF8BE49DE1215080409040E1F700C09C
:1000C00000002D982FEF8BE49DE12150804090405F
:1000D000E1F700C000002D9A809100018F5F8093AE
:1000E0000001E1CF9F918F912F910F900FBE0F9044
:1000F0001F9018951F920F920FB60F9211242F93F5
:100100008F939F93459810920001809100018A304F
:10011000D8F42D9A2FEF85EA9EE021508040904040
:10012000E1F700C000002D982FEF85EA9EE02150F6
:1001300080409040E1F700C000002D9A80910001BE
:100140008F5F80930001E1CF9F918F912F910F904E
:100150000FBE0F901F90189551982798259A3D9A99
:1001600045982D9880916800856080936800809103
:100170006B00806880936B0080916D00826080933B
:100180006D00789490E21092000188B1892788B9B7
:100190002FEF33E284EF215030408040E1F700C080
:0801A0000000F1CFF894FFCF3D
:00000001FF
