:100000000C9434000C9440000C943E000C943E0080
:100010000C943E000C943E000C943E000C943E0068
:100020000C943E000C943E000C943E000C943E0058
:100030000C943E000C943E000C943E000C943E0048
:100040000C943E000C943E000C943E000C943E0038
:100050000C943E000C943E000C943E000C943E0028
:100060000C943E000C943E0011241FBECFEFD8E04C
:10007000DEBFCDBF0E9462000C9479000C9400009A
:100080001F920F920FB60F9211242F933F938F93CD
:100090009F939BB180E198279BB92FEF33ED90E3BD
:1000A000215030409040E1F700C000009BB189270B
:1000B0008BB99F918F913F912F910F900FBE0F9011
:1000C0001F9018958AB180638AB95A9883E080930B
:1000D0006900E89A789490E28BB189278BB92FEF69
:1000E00039E688E1215030408040E1F700C000004F
:0600F000F3CFF894FFCFEE
:00000001FF
