:100000000C9434000C943E000C943E000C943E0082
:100010000C943E000C943E000C943E000C943E0068
:100020000C943E000C943E000C943E000C943E0058
:100030000C943E000C943E000C943E000C943E0048
:100040000C943E000C943E000C943E000C943E0038
:100050000C943E000C943E000C943E000C943E0028
:100060000C943E000C943E0011241FBECFEFD8E04C
:10007000DEBFCDBF0E9440000C9461000C940000D4
:100080008AB18AB984B1826284B987B1826287B940
:1000900090E282E095B988B92FEF39E648E1215026
:1000A00030404040E1F700C0000098B985B92FEF1B
:1000B00039E648E1215030404040E1F700C00000FF
:0600C000E9CFF894FFCF28
:00000001FF
