:100000000C9434000C943E000C943E000C943E0082
:100010000C943E000C943E000C943E000C943E0068
:100020000C943E000C943E000C943E000C943E0058
:100030000C943E000C943E000C943E000C943E0048
:100040000C943E000C943E000C943E000C943E0038
:100050000C943E000C943E000C943E000C943E0028
:100060000C943E000C943E0011241FBECFEFD4E050
:10007000DEBFCDBF0E9440000C9451000C940000E4
:100080008FEF8AB984B5806884BD84B5836084BDF0
:1000900085B5886085BD85B5826085BD82E387BDF5
:0600A000FFCFF894FFCF32
:00000001FF
