:100000000C9434000C943E000C943E000C943E0082
:100010000C943E000C943E000C943E000C943E0068
:100020000C943E000C943E000C943E000C943E0058
:100030000C943E000C943E000C943E000C943E0048
:100040000C943E000C943E000C943E000C943E0038
:100050000C943E000C943E000C943E000C943E0028
:100060000C943E000C943E0011241FBECFEFD8E04C
:10007000DEBFCDBF0E9440000C9457000C940000DE
:10008000569A52985A9A83E884BD83E085BD80E8E9
:100090004A990BC02FEF39EF90E02150304090404B
:1000A000E1F700C0000087BDF3CF17BCF1CFF89493
:0200B000FFCF80
:00000001FF
