:100000000C9434000C9446000C9446000C9446006A
:100010000C9446000C9446000C9446000C94460048
:100020000C9446000C9446000C9446000C94460038
:100030000C9446000C9446000C9448000C94460026
:100040000C9446000C9446000C9446000C94460018
:100050000C9446000C9446000C9446000C94460008
:100060000C9446000C94460011241FBECFEFD8E03C
:10007000DEBFCDBF21E0A0E0B1E001C01D92A23003
:10008000B207E1F70E9468000C9479000C9400001C
:100090001F920F920FB60F9211248F939F9380910E
:1000A000000190910101019690930101809300015C
:1000B0000C973CF08BB180588BB9109201011092D3
:1000C00000019F918F910F900FBE0F901F90189578
:1000D000579A5F9A85B5856085BD84B5826084BD79
:1000E0008AEF87BD80916E00826080936E00789465
:0600F000FFCFF894FFCFE2
:00000001FF
