:100000000C9434000C943E000C943E000C943E0082
:100010000C943E000C943E000C943E000C943E0068
:100020000C943E000C943E000C943E000C943E0058
:100030000C943E000C943E000C943E000C943E0048
:100040000C943E000C943E000C943E000C943E0038
:100050000C943E000C943E000C943E000C943E0028
:100060000C943E000C943E0011241FBECFEFD8E04C
:10007000DEBFCDBF0E9440000C946B000C940000CA
:10008000569A52985A9A83E884BD83E085BD17BC7E
:1000900021E090E089B18470211102C0282FFACFAD
:1000A0008111FCCF2FEF39EF40E02150304040402C
:1000B000E1F700C000004A9902C0975E97BD4A9BD5
:1000C000FECF2FEF39EF40E0215030404040E1F7C4
:0A00D00000C00000E3CFF894FFCF5A
:00000001FF
