:100000000C9434000C9451000C9451000C94510049
:100010000C9451000C9451000C9451000C9451001C
:100020000C9451000C9451000C9451000C9451000C
:100030000C9451000C9451000C9451000C945100FC
:100040000C9451000C9451000C945F000C945100DE
:100050000C9451000C9451000C9451000C945100DC
:100060000C9451000C94510011241FBECFEFD4E02A
:10007000DEBFCDBF11E0A0E0B1E0E2E5F2E002C0FA
:1000800005900D92A036B107D9F721E0A0E6B1E0C6
:1000900001C01D92A536B207E1F70E94E2000C9460
:1000A00027010C940000FC019191992339F0809173
:1000B000C00085FFFCCF9093C600F6CF08951F9235
:1000C0000F920FB60F9211242F933F934F935F938C
:1000D0006F937F938F939F93AF93BF93EF93FF9310
:1000E0008091C6008D3019F08A3009F04AC03091F5
:1000F00064013323A9F1E32FF0E0E05AFE4F1082B0
:10010000E0E6F1E020E080E04AE0919150ED590F07
:100110005A3028F4849F900D1124892F80532F5F2B
:100120003213F3CF853608F084E62FEF829FC001AB
:10013000112464E670E00E94FF0067BD80E091E05A
:100140000E94530080E691E00E9453008AE191E012
:100150000E945300109264018DE191E00E945300CF
:10016000FF91EF91BF91AF919F918F917F916F918F
:100170005F914F913F912F910F900FBE0F901F9065
:100180001895883011F08F3751F4809164018823DD
:1001900039F38150809364018EE391E0DFCF90EDDD
:1001A000980F9A30E8F6E0916401E330C8F691E0E8
:1001B0009E0F90936401F0E0E05AFE4F808380939D
:1001C000C600CECF1092C50087E68093C40088E9B0
:1001D0008093C10086E08093C200569A84B5836004
:1001E00084BD84B5806884BD85B5836085BD17BC3A
:1001F000569A789482E491E00E945300FFCF97FBD7
:10020000072E16F4009407D077FD09D00E94130141
:1002100007FC05D03EF4909581959F4F0895709509
:1002200061957F4F0895AA1BBB1B51E107C0AA1F10
:10023000BB1FA617B70710F0A61BB70B881F991F87
:100240005A95A9F780959095BC01CD010895F89431
:02025000FFCFDE
:1002520044757479206379636C6520616A7573747F
:1002620061646F20706172612000250A0044696731
:10027200697465206E6F766F206475747920637976
:10028200636C652028302D313030293A0A0008206D
:100292000800446967697465206F20647574792069
:1002A2006379636C652028302D313030293A0A0099
:00000001FF
