:100000000C9434000C943E000C943E000C943E0082
:100010000C943E000C943E000C943E000C943E0068
:100020000C943E000C943E000C943E000C943E0058
:100030000C943E000C943E000C943E000C943E0048
:100040000C943E000C943E000C943E000C943E0038
:100050000C943E000C943E000C943E000C943E0028
:100060000C943E000C943E0011241FBECFEFD8E04C
:10007000DEBFCDBF0E9440000C9465000C940000D0
:100080001AB8509A1BB814B81BB84A9B0BC04D9BAA
:1000900009C04C9B07C0589AF8CF189B0BC04D99CC
:1000A00009C0589A4A99F9CF05C04D990BC04C9B8D
:1000B00009C0589A4A9BF9CF05C01899E5CF4D99C8
:0E00C000E3CF589A4A99F9CFDFCFF894FFCFDB
:00000001FF
